{
  "contractName": "Election",
  "abi": [
    {
      "constant": true,
      "inputs": [],
      "name": "candidatesCount",
      "outputs": [
        {
          "name": "",
          "type": "uint256"
        }
      ],
      "payable": false,
      "stateMutability": "view",
      "type": "function",
      "signature": "0x2d35a8a2"
    },
    {
      "constant": true,
      "inputs": [
        {
          "name": "",
          "type": "uint256"
        }
      ],
      "name": "candidates",
      "outputs": [
        {
          "name": "id",
          "type": "uint256"
        },
        {
          "name": "name",
          "type": "string"
        },
        {
          "name": "voteCount",
          "type": "uint256"
        },
        {
          "name": "symbol",
          "type": "string"
        }
      ],
      "payable": false,
      "stateMutability": "view",
      "type": "function",
      "signature": "0x3477ee2e"
    },
    {
      "constant": true,
      "inputs": [
        {
          "name": "",
          "type": "address"
        }
      ],
      "name": "voters",
      "outputs": [
        {
          "name": "",
          "type": "bool"
        }
      ],
      "payable": false,
      "stateMutability": "view",
      "type": "function",
      "signature": "0xa3ec138d"
    },
    {
      "inputs": [],
      "payable": false,
      "stateMutability": "nonpayable",
      "type": "constructor",
      "signature": "constructor"
    },
    {
      "anonymous": false,
      "inputs": [
        {
          "indexed": true,
          "name": "_candidateId",
          "type": "uint256"
        }
      ],
      "name": "votedEvent",
      "type": "event",
      "signature": "0xfff3c900d938d21d0990d786e819f29b8d05c1ef587b462b939609625b684b16"
    },
    {
      "constant": false,
      "inputs": [
        {
          "name": "_candidateId",
          "type": "uint256"
        }
      ],
      "name": "vote",
      "outputs": [],
      "payable": false,
      "stateMutability": "nonpayable",
      "type": "function",
      "signature": "0x0121b93f"
    }
  ],
  "bytecode": "0x608060405234801561001057600080fd5b506100946040805190810160405280600781526020017f5669676e657368000000000000000000000000000000000000000000000000008152506040805190810160405280601981526020017f2e2e2f696d616765732f63616e646964617465312e6a7065670000000000000081525061019f640100000000026401000000009004565b6101176040805190810160405280600581526020017f4c616368750000000000000000000000000000000000000000000000000000008152506040805190810160405280601981526020017f2e2e2f696d616765732f63616e646964617465322e6a7065670000000000000081525061019f640100000000026401000000009004565b61019a6040805190810160405280600981526020017f56656e6b617465736800000000000000000000000000000000000000000000008152506040805190810160405280601981526020017f2e2e2f696d616765732f63616e646964617465332e6a7065670000000000000081525061019f640100000000026401000000009004565b6102e5565b60026000815480929190600101919050555060806040519081016040528060025481526020018381526020016000815260200182815250600160006002548152602001908152602001600020600082015181600001556020820151816001019080519060200190610211929190610240565b50604082015181600201556060820151816003019080519060200190610238929190610240565b509050505050565b828054600181600116156101000203166002900490600052602060002090601f016020900481019282601f1061028157805160ff19168380011785556102af565b828001600101855582156102af579182015b828111156102ae578251825591602001919060010190610293565b5b5090506102bc91906102c0565b5090565b6102e291905b808211156102de5760008160009055506001016102c6565b5090565b90565b61050e806102f46000396000f300608060405260043610610062576000357c0100000000000000000000000000000000000000000000000000000000900463ffffffff1680630121b93f146100675780632d35a8a2146100945780633477ee2e146100bf578063a3ec138d146101df575b600080fd5b34801561007357600080fd5b506100926004803603810190808035906020019092919050505061023a565b005b3480156100a057600080fd5b506100a961035c565b6040518082815260200191505060405180910390f35b3480156100cb57600080fd5b506100ea60048036038101908080359060200190929190505050610362565b604051808581526020018060200184815260200180602001838103835286818151815260200191508051906020019080838360005b8381101561013a57808201518184015260208101905061011f565b50505050905090810190601f1680156101675780820380516001836020036101000a031916815260200191505b50838103825284818151815260200191508051906020019080838360005b838110156101a0578082015181840152602081019050610185565b50505050905090810190601f1680156101cd5780820380516001836020036101000a031916815260200191505b50965050505050505060405180910390f35b3480156101eb57600080fd5b50610220600480360381019080803573ffffffffffffffffffffffffffffffffffffffff1690602001909291905050506104c2565b604051808215151515815260200191505060405180910390f35b6000803373ffffffffffffffffffffffffffffffffffffffff1673ffffffffffffffffffffffffffffffffffffffff16815260200190815260200160002060009054906101000a900460ff1615151561029257600080fd5b6000811180156102a457506002548111155b15156102af57600080fd5b60016000803373ffffffffffffffffffffffffffffffffffffffff1673ffffffffffffffffffffffffffffffffffffffff16815260200190815260200160002060006101000a81548160ff0219169083151502179055506001600082815260200190815260200160002060020160008154809291906001019190505550807ffff3c900d938d21d0990d786e819f29b8d05c1ef587b462b939609625b684b1660405160405180910390a250565b60025481565b6001602052806000526040600020600091509050806000015490806001018054600181600116156101000203166002900480601f0160208091040260200160405190810160405280929190818152602001828054600181600116156101000203166002900480156104145780601f106103e957610100808354040283529160200191610414565b820191906000526020600020905b8154815290600101906020018083116103f757829003601f168201915b505050505090806002015490806003018054600181600116156101000203166002900480601f0160208091040260200160405190810160405280929190818152602001828054600181600116156101000203166002900480156104b85780601f1061048d576101008083540402835291602001916104b8565b820191906000526020600020905b81548152906001019060200180831161049b57829003601f168201915b5050505050905084565b60006020528060005260406000206000915054906101000a900460ff16815600a165627a7a72305820ed22f285da9a87d6be9b689c6ea136dc8b54a97baab35daece72121b9c6d633f0029",
  "source": "pragma solidity 0.4.25;\n\ncontract Election {\n    // Model a Candidate\n    struct Candidate {\n        uint id;\n        string name;\n        uint voteCount;\n        string symbol;\n    }\n\n    // Store accounts that have voted\n    mapping(address => bool) public voters;\n    // Store Candidates\n    // Fetch Candidate\n    mapping(uint => Candidate) public candidates;\n    // Store Candidates Count\n    uint public candidatesCount;\n\n    // voted event\n    event votedEvent (\n        uint indexed _candidateId\n    );\n\n    constructor () public {\n        addCandidate(\"Vignesh\",\"../images/candidate1.jpeg\");\n        addCandidate(\"Lachu\",\"../images/candidate2.jpeg\");\n        addCandidate(\"Venkatesh\",\"../images/candidate3.jpeg\");\n        // addCandidate(\"Lachu\");\n        // addCandidate(\"Venkatesh\");\n        // addCandidate(\"SaranrajShri\");\n    }\n\n    function addCandidate (string _name,string _symbol) private {\n        candidatesCount ++;\n        candidates[candidatesCount] = Candidate(candidatesCount, _name, 0,_symbol);\n    }\n\n    function vote (uint _candidateId) public {\n        // require that they haven't voted before\n        require(!voters[msg.sender]);\n\n        // require a valid candidate\n        require(_candidateId > 0 && _candidateId <= candidatesCount);\n\n        // record that voter has voted\n        voters[msg.sender] = true;\n\n        // update candidate vote Count\n        candidates[_candidateId].voteCount ++;\n\n        // trigger voted event\n        emit votedEvent(_candidateId);\n    }\n}\n",
  "sourcePath": "E:/BlockChain/contracts/Election.sol",
  "compiler": {
    "name": "solc",
    "version": "0.4.25+commit.59dbf8f1.Emscripten.clang"
  },
  "schemaVersion": "3.0.6",
  "updatedAt": "2019-03-31T07:42:15.708Z",
  "devdoc": {
    "methods": {}
  },
  "userdoc": {
    "methods": {}
  }
}